{
  "contractName": "HarrCoin",
  "abi": [
    {
      "inputs": [],
      "stateMutability": "nonpayable",
      "type": "constructor"
    },
    {
      "inputs": [],
      "name": "admin",
      "outputs": [
        {
          "internalType": "address",
          "name": "",
          "type": "address"
        }
      ],
      "stateMutability": "view",
      "type": "function"
    },
    {
      "inputs": [
        {
          "internalType": "address",
          "name": "",
          "type": "address"
        }
      ],
      "name": "kids",
      "outputs": [
        {
          "internalType": "uint256",
          "name": "amount",
          "type": "uint256"
        },
        {
          "internalType": "uint256",
          "name": "matiurity",
          "type": "uint256"
        },
        {
          "internalType": "bool",
          "name": "paid",
          "type": "bool"
        }
      ],
      "stateMutability": "view",
      "type": "function"
    },
    {
      "inputs": [
        {
          "internalType": "address",
          "name": "kid",
          "type": "address"
        },
        {
          "internalType": "uint256",
          "name": "timeToMaturity",
          "type": "uint256"
        }
      ],
      "name": "addKid",
      "outputs": [],
      "stateMutability": "payable",
      "type": "function"
    },
    {
      "inputs": [],
      "name": "withdraw",
      "outputs": [],
      "stateMutability": "nonpayable",
      "type": "function"
    }
  ],
  "bytecode": "0x608060405234801561001057600080fd5b5033600160006101000a81548173ffffffffffffffffffffffffffffffffffffffff021916908373ffffffffffffffffffffffffffffffffffffffff160217905550610631806100616000396000f3fe60806040526004361061003f5760003560e01c80632438628c146100445780633ccfd60b146100b957806340990e30146100d0578063f851a4401461011e575b600080fd5b34801561005057600080fd5b506100936004803603602081101561006757600080fd5b81019080803573ffffffffffffffffffffffffffffffffffffffff16906020019092919050505061015f565b604051808481526020018381526020018215158152602001935050505060405180910390f35b3480156100c557600080fd5b506100ce610196565b005b61011c600480360360408110156100e657600080fd5b81019080803573ffffffffffffffffffffffffffffffffffffffff169060200190929190803590602001909291905050506103c2565b005b34801561012a57600080fd5b506101336105d5565b604051808273ffffffffffffffffffffffffffffffffffffffff16815260200191505060405180910390f35b60006020528060005260406000206000915090508060000154908060010154908060020160009054906101000a900460ff16905083565b60008060003373ffffffffffffffffffffffffffffffffffffffff1673ffffffffffffffffffffffffffffffffffffffff16815260200190815260200160002090504281600101541115610252576040517f08c379a00000000000000000000000000000000000000000000000000000000081526004018080602001828103825260098152602001807f746f6f206561726c79000000000000000000000000000000000000000000000081525060200191505060405180910390fd5b60008160000154116102cc576040517f08c379a00000000000000000000000000000000000000000000000000000000081526004018080602001828103825260158152602001807f6f6e6c79206b69642063616e207769746864726177000000000000000000000081525060200191505060405180910390fd5b600015158160020160009054906101000a900460ff16151514610357576040517f08c379a000000000000000000000000000000000000000000000000000000000815260040180806020018281038252600c8152602001807f7061696420616c7265616479000000000000000000000000000000000000000081525060200191505060405180910390fd5b60018160020160006101000a81548160ff0219169083151502179055503373ffffffffffffffffffffffffffffffffffffffff166108fc82600001549081150290604051600060405180830381858888f193505050501580156103be573d6000803e3d6000fd5b5050565b600160009054906101000a900473ffffffffffffffffffffffffffffffffffffffff1673ffffffffffffffffffffffffffffffffffffffff163373ffffffffffffffffffffffffffffffffffffffff1614610485576040517f08c379a000000000000000000000000000000000000000000000000000000000815260040180806020018281038252600a8152602001807f6f6e6c792061646d696e0000000000000000000000000000000000000000000081525060200191505060405180910390fd5b60008060003373ffffffffffffffffffffffffffffffffffffffff1673ffffffffffffffffffffffffffffffffffffffff168152602001908152602001600020600001541461053c576040517f08c379a00000000000000000000000000000000000000000000000000000000081526004018080602001828103825260118152602001807f6b696420616c726561647920657869737400000000000000000000000000000081525060200191505060405180910390fd5b60405180606001604052803481526020018242018152602001600015158152506000808473ffffffffffffffffffffffffffffffffffffffff1673ffffffffffffffffffffffffffffffffffffffff168152602001908152602001600020600082015181600001556020820151816001015560408201518160020160006101000a81548160ff0219169083151502179055509050505050565b600160009054906101000a900473ffffffffffffffffffffffffffffffffffffffff168156fea26469706673582212202e60e4e131f08bc66e326d9664a4ae9c679873cd2d17a3549e5a7734d091e77564736f6c63430007060033",
  "immutableReferences": {},
  "source": "pragma solidity =0.7.6;\n\ncontract HarrCoin{\n    struct Kid {\n        uint amount;\n        uint matiurity;\n        bool paid;\n    }\n    mapping(address => Kid) public kids;\n    address public admin;\n    \n    constructor() {\n       admin = msg.sender;\n        \n    }\n    \n    function addKid(address kid, uint timeToMaturity) external payable{\n        require(msg.sender == admin, 'only admin');\n        require(kids[msg.sender].amount == 0, 'kid already exist');\n        kids[kid] = Kid(msg.value, block.timestamp + timeToMaturity, false);\n    }\n    \n    \n    \n    function withdraw() external {\n        Kid storage kid = kids[msg.sender];\n        require(kid.matiurity <= block.timestamp,'too early');\n        require(kid.amount > 0, 'only kid can withdraw');\n        require(kid.paid == false, 'paid already');\n        kid.paid = true;\n        payable(msg.sender).transfer(kid.amount);\n        \n        \n    }\n}\n\n",
  "sourcePath": "/Users/manhincheng721831/Documents/ecommerce-app-harriet/contracts/HarrietCoin.sol",
  "compiler": {
    "name": "solc",
    "version": "0.7.6+commit.7338295f.Emscripten.clang"
  },
  "schemaVersion": "3.3.4",
  "updatedAt": "2021-03-02T16:52:38.170Z",
  "devdoc": {
    "kind": "dev",
    "methods": {},
    "version": 1
  },
  "userdoc": {
    "kind": "user",
    "methods": {},
    "version": 1
  }
}